{
  "contractName": "AxelarExecutable",
  "abi": [
    {
      "inputs": [
        {
          "internalType": "address",
          "name": "gateway_",
          "type": "address"
        }
      ],
      "stateMutability": "nonpayable",
      "type": "constructor"
    },
    {
      "inputs": [],
      "name": "InvalidAddress",
      "type": "error"
    },
    {
      "inputs": [],
      "name": "NotApprovedByGateway",
      "type": "error"
    },
    {
      "inputs": [],
      "name": "gateway",
      "outputs": [
        {
          "internalType": "contract IAxelarGateway",
          "name": "",
          "type": "address"
        }
      ],
      "stateMutability": "view",
      "type": "function"
    },
    {
      "inputs": [
        {
          "internalType": "bytes32",
          "name": "commandId",
          "type": "bytes32"
        },
        {
          "internalType": "string",
          "name": "sourceChain",
          "type": "string"
        },
        {
          "internalType": "string",
          "name": "sourceAddress",
          "type": "string"
        },
        {
          "internalType": "bytes",
          "name": "payload",
          "type": "bytes"
        }
      ],
      "name": "execute",
      "outputs": [],
      "stateMutability": "nonpayable",
      "type": "function"
    },
    {
      "inputs": [
        {
          "internalType": "bytes32",
          "name": "commandId",
          "type": "bytes32"
        },
        {
          "internalType": "string",
          "name": "sourceChain",
          "type": "string"
        },
        {
          "internalType": "string",
          "name": "sourceAddress",
          "type": "string"
        },
        {
          "internalType": "bytes",
          "name": "payload",
          "type": "bytes"
        },
        {
          "internalType": "string",
          "name": "tokenSymbol",
          "type": "string"
        },
        {
          "internalType": "uint256",
          "name": "amount",
          "type": "uint256"
        }
      ],
      "name": "executeWithToken",
      "outputs": [],
      "stateMutability": "nonpayable",
      "type": "function"
    }
  ],
  "bytecode": "0x60a060405234801561000f575f80fd5b506040516105fc3803806105fc83398101604081905261002e91610066565b6001600160a01b0381166100555760405163e6c4247b60e01b815260040160405180910390fd5b6001600160a01b0316608052610093565b5f60208284031215610076575f80fd5b81516001600160a01b038116811461008c575f80fd5b9392505050565b6080516105456100b75f395f818160480152818160de01526101bd01526105455ff3fe608060405234801561000f575f80fd5b506004361061003f575f3560e01c8063116191b6146100435780631a98b2e014610086578063491606581461009b575b5f80fd5b61006a7f000000000000000000000000000000000000000000000000000000000000000081565b6040516001600160a01b03909116815260200160405180910390f35b6100996100943660046102a8565b6100ae565b005b6100996100a9366004610378565b61018d565b5f85856040516100bf929190610414565b604051908190038120631876eed960e01b825291506001600160a01b037f00000000000000000000000000000000000000000000000000000000000000001690631876eed990610123908e908e908e908e908e9089908d908d908d9060040161044b565b6020604051808303815f875af115801561013f573d5f803e3d5ffd5b505050506040513d601f19601f8201168201806040525081019061016391906104a9565b61018057604051631403112d60e21b815260040160405180910390fd5b5050505050505050505050565b5f828260405161019e929190610414565b604051908190038120635f6970c360e01b825291506001600160a01b037f00000000000000000000000000000000000000000000000000000000000000001690635f6970c3906101fc908b908b908b908b908b9089906004016104cf565b6020604051808303815f875af1158015610218573d5f803e3d5ffd5b505050506040513d601f19601f8201168201806040525081019061023c91906104a9565b61025957604051631403112d60e21b815260040160405180910390fd5b5050505050505050565b5f8083601f840112610273575f80fd5b50813567ffffffffffffffff81111561028a575f80fd5b6020830191508360208285010111156102a1575f80fd5b9250929050565b5f805f805f805f805f8060c08b8d0312156102c1575f80fd5b8a35995060208b013567ffffffffffffffff808211156102df575f80fd5b6102eb8e838f01610263565b909b50995060408d0135915080821115610303575f80fd5b61030f8e838f01610263565b909950975060608d0135915080821115610327575f80fd5b6103338e838f01610263565b909750955060808d013591508082111561034b575f80fd5b506103588d828e01610263565b9150809450508092505060a08b013590509295989b9194979a5092959850565b5f805f805f805f6080888a03121561038e575f80fd5b87359650602088013567ffffffffffffffff808211156103ac575f80fd5b6103b88b838c01610263565b909850965060408a01359150808211156103d0575f80fd5b6103dc8b838c01610263565b909650945060608a01359150808211156103f4575f80fd5b506104018a828b01610263565b989b979a50959850939692959293505050565b818382375f9101908152919050565b81835281816020850137505f828201602090810191909152601f909101601f19169091010190565b89815260c060208201525f61046460c083018a8c610423565b828103604084015261047781898b610423565b90508660608401528281036080840152610492818688610423565b9150508260a08301529a9950505050505050505050565b5f602082840312156104b9575f80fd5b815180151581146104c8575f80fd5b9392505050565b868152608060208201525f6104e8608083018789610423565b82810360408401526104fb818688610423565b91505082606083015297965050505050505056fea2646970667358221220eebfdfb427b831ce55925d1d538532de04ebd8cf090fa22d35caf5f5c86cae5464736f6c63430008140033",
  "immutableReferences": {
    "10": [
      {
        "length": 32,
        "start": 72
      },
      {
        "length": 32,
        "start": 222
      },
      {
        "length": 32,
        "start": 445
      }
    ]
  },
  "source": "// SPDX-License-Identifier: MIT\n\npragma solidity ^0.8.0;\n\nimport { IAxelarGateway } from '../interfaces/IAxelarGateway.sol';\nimport { IAxelarExecutable } from '../interfaces/IAxelarExecutable.sol';\n\ncontract AxelarExecutable is IAxelarExecutable {\n    IAxelarGateway public immutable gateway;\n\n    constructor(address gateway_) {\n        if (gateway_ == address(0)) revert InvalidAddress();\n\n        gateway = IAxelarGateway(gateway_);\n    }\n\n    function execute(\n        bytes32 commandId,\n        string calldata sourceChain,\n        string calldata sourceAddress,\n        bytes calldata payload\n    ) external {\n        bytes32 payloadHash = keccak256(payload);\n\n        if (!gateway.validateContractCall(commandId, sourceChain, sourceAddress, payloadHash))\n            revert NotApprovedByGateway();\n\n        _execute(sourceChain, sourceAddress, payload);\n    }\n\n    function executeWithToken(\n        bytes32 commandId,\n        string calldata sourceChain,\n        string calldata sourceAddress,\n        bytes calldata payload,\n        string calldata tokenSymbol,\n        uint256 amount\n    ) external {\n        bytes32 payloadHash = keccak256(payload);\n\n        if (\n            !gateway.validateContractCallAndMint(\n                commandId,\n                sourceChain,\n                sourceAddress,\n                payloadHash,\n                tokenSymbol,\n                amount\n            )\n        ) revert NotApprovedByGateway();\n\n        _executeWithToken(sourceChain, sourceAddress, payload, tokenSymbol, amount);\n    }\n\n    function _execute(\n        string calldata sourceChain,\n        string calldata sourceAddress,\n        bytes calldata payload\n    ) internal virtual {}\n\n    function _executeWithToken(\n        string calldata sourceChain,\n        string calldata sourceAddress,\n        bytes calldata payload,\n        string calldata tokenSymbol,\n        uint256 amount\n    ) internal virtual {}\n}\n",
  "sourcePath": "@axelar-network/axelar-gmp-sdk-solidity/contracts/executable/AxelarExecutable.sol",
  "compiler": {
    "name": "solc",
    "version": "0.8.20+commit.a1b79de6.Emscripten.clang"
  },
  "schemaVersion": "3.4.16",
  "updatedAt": "2024-09-14T06:10:37.551Z",
  "devdoc": {
    "kind": "dev",
    "methods": {},
    "version": 1
  },
  "userdoc": {
    "kind": "user",
    "methods": {},
    "version": 1
  }
}