{
  "contractName": "BurnableToken",
  "abi": [
    {
      "inputs": [
        {
          "internalType": "address",
          "name": "gateway_",
          "type": "address"
        },
        {
          "internalType": "uint256",
          "name": "initialSupply",
          "type": "uint256"
        }
      ],
      "stateMutability": "nonpayable",
      "type": "constructor"
    },
    {
      "inputs": [
        {
          "internalType": "address",
          "name": "spender",
          "type": "address"
        },
        {
          "internalType": "uint256",
          "name": "allowance",
          "type": "uint256"
        },
        {
          "internalType": "uint256",
          "name": "needed",
          "type": "uint256"
        }
      ],
      "name": "ERC20InsufficientAllowance",
      "type": "error"
    },
    {
      "inputs": [
        {
          "internalType": "address",
          "name": "sender",
          "type": "address"
        },
        {
          "internalType": "uint256",
          "name": "balance",
          "type": "uint256"
        },
        {
          "internalType": "uint256",
          "name": "needed",
          "type": "uint256"
        }
      ],
      "name": "ERC20InsufficientBalance",
      "type": "error"
    },
    {
      "inputs": [
        {
          "internalType": "address",
          "name": "approver",
          "type": "address"
        }
      ],
      "name": "ERC20InvalidApprover",
      "type": "error"
    },
    {
      "inputs": [
        {
          "internalType": "address",
          "name": "receiver",
          "type": "address"
        }
      ],
      "name": "ERC20InvalidReceiver",
      "type": "error"
    },
    {
      "inputs": [
        {
          "internalType": "address",
          "name": "sender",
          "type": "address"
        }
      ],
      "name": "ERC20InvalidSender",
      "type": "error"
    },
    {
      "inputs": [
        {
          "internalType": "address",
          "name": "spender",
          "type": "address"
        }
      ],
      "name": "ERC20InvalidSpender",
      "type": "error"
    },
    {
      "inputs": [],
      "name": "InvalidAddress",
      "type": "error"
    },
    {
      "inputs": [],
      "name": "NotApprovedByGateway",
      "type": "error"
    },
    {
      "anonymous": false,
      "inputs": [
        {
          "indexed": true,
          "internalType": "address",
          "name": "owner",
          "type": "address"
        },
        {
          "indexed": true,
          "internalType": "address",
          "name": "spender",
          "type": "address"
        },
        {
          "indexed": false,
          "internalType": "uint256",
          "name": "value",
          "type": "uint256"
        }
      ],
      "name": "Approval",
      "type": "event"
    },
    {
      "anonymous": false,
      "inputs": [
        {
          "indexed": false,
          "internalType": "uint256",
          "name": "amount",
          "type": "uint256"
        }
      ],
      "name": "TokensBurned",
      "type": "event"
    },
    {
      "anonymous": false,
      "inputs": [
        {
          "indexed": true,
          "internalType": "address",
          "name": "from",
          "type": "address"
        },
        {
          "indexed": true,
          "internalType": "address",
          "name": "to",
          "type": "address"
        },
        {
          "indexed": false,
          "internalType": "uint256",
          "name": "value",
          "type": "uint256"
        }
      ],
      "name": "Transfer",
      "type": "event"
    },
    {
      "inputs": [
        {
          "internalType": "address",
          "name": "owner",
          "type": "address"
        },
        {
          "internalType": "address",
          "name": "spender",
          "type": "address"
        }
      ],
      "name": "allowance",
      "outputs": [
        {
          "internalType": "uint256",
          "name": "",
          "type": "uint256"
        }
      ],
      "stateMutability": "view",
      "type": "function",
      "constant": true
    },
    {
      "inputs": [
        {
          "internalType": "address",
          "name": "spender",
          "type": "address"
        },
        {
          "internalType": "uint256",
          "name": "value",
          "type": "uint256"
        }
      ],
      "name": "approve",
      "outputs": [
        {
          "internalType": "bool",
          "name": "",
          "type": "bool"
        }
      ],
      "stateMutability": "nonpayable",
      "type": "function"
    },
    {
      "inputs": [
        {
          "internalType": "address",
          "name": "account",
          "type": "address"
        }
      ],
      "name": "balanceOf",
      "outputs": [
        {
          "internalType": "uint256",
          "name": "",
          "type": "uint256"
        }
      ],
      "stateMutability": "view",
      "type": "function",
      "constant": true
    },
    {
      "inputs": [
        {
          "internalType": "uint256",
          "name": "value",
          "type": "uint256"
        }
      ],
      "name": "burn",
      "outputs": [],
      "stateMutability": "nonpayable",
      "type": "function"
    },
    {
      "inputs": [
        {
          "internalType": "address",
          "name": "account",
          "type": "address"
        },
        {
          "internalType": "uint256",
          "name": "value",
          "type": "uint256"
        }
      ],
      "name": "burnFrom",
      "outputs": [],
      "stateMutability": "nonpayable",
      "type": "function"
    },
    {
      "inputs": [],
      "name": "decimals",
      "outputs": [
        {
          "internalType": "uint8",
          "name": "",
          "type": "uint8"
        }
      ],
      "stateMutability": "view",
      "type": "function",
      "constant": true
    },
    {
      "inputs": [
        {
          "internalType": "bytes32",
          "name": "commandId",
          "type": "bytes32"
        },
        {
          "internalType": "string",
          "name": "sourceChain",
          "type": "string"
        },
        {
          "internalType": "string",
          "name": "sourceAddress",
          "type": "string"
        },
        {
          "internalType": "bytes",
          "name": "payload",
          "type": "bytes"
        }
      ],
      "name": "execute",
      "outputs": [],
      "stateMutability": "nonpayable",
      "type": "function"
    },
    {
      "inputs": [
        {
          "internalType": "bytes32",
          "name": "commandId",
          "type": "bytes32"
        },
        {
          "internalType": "string",
          "name": "sourceChain",
          "type": "string"
        },
        {
          "internalType": "string",
          "name": "sourceAddress",
          "type": "string"
        },
        {
          "internalType": "bytes",
          "name": "payload",
          "type": "bytes"
        },
        {
          "internalType": "string",
          "name": "tokenSymbol",
          "type": "string"
        },
        {
          "internalType": "uint256",
          "name": "amount",
          "type": "uint256"
        }
      ],
      "name": "executeWithToken",
      "outputs": [],
      "stateMutability": "nonpayable",
      "type": "function"
    },
    {
      "inputs": [],
      "name": "gateway",
      "outputs": [
        {
          "internalType": "contract IAxelarGateway",
          "name": "",
          "type": "address"
        }
      ],
      "stateMutability": "view",
      "type": "function",
      "constant": true
    },
    {
      "inputs": [],
      "name": "name",
      "outputs": [
        {
          "internalType": "string",
          "name": "",
          "type": "string"
        }
      ],
      "stateMutability": "view",
      "type": "function",
      "constant": true
    },
    {
      "inputs": [],
      "name": "symbol",
      "outputs": [
        {
          "internalType": "string",
          "name": "",
          "type": "string"
        }
      ],
      "stateMutability": "view",
      "type": "function",
      "constant": true
    },
    {
      "inputs": [],
      "name": "totalSupply",
      "outputs": [
        {
          "internalType": "uint256",
          "name": "",
          "type": "uint256"
        }
      ],
      "stateMutability": "view",
      "type": "function",
      "constant": true
    },
    {
      "inputs": [
        {
          "internalType": "address",
          "name": "to",
          "type": "address"
        },
        {
          "internalType": "uint256",
          "name": "value",
          "type": "uint256"
        }
      ],
      "name": "transfer",
      "outputs": [
        {
          "internalType": "bool",
          "name": "",
          "type": "bool"
        }
      ],
      "stateMutability": "nonpayable",
      "type": "function"
    },
    {
      "inputs": [
        {
          "internalType": "address",
          "name": "from",
          "type": "address"
        },
        {
          "internalType": "address",
          "name": "to",
          "type": "address"
        },
        {
          "internalType": "uint256",
          "name": "value",
          "type": "uint256"
        }
      ],
      "name": "transferFrom",
      "outputs": [
        {
          "internalType": "bool",
          "name": "",
          "type": "bool"
        }
      ],
      "stateMutability": "nonpayable",
      "type": "function"
    },
    {
      "stateMutability": "payable",
      "type": "receive",
      "payable": true
    },
    {
      "inputs": [
        {
          "internalType": "uint256",
          "name": "amount",
          "type": "uint256"
        }
      ],
      "name": "burnTokens",
      "outputs": [],
      "stateMutability": "nonpayable",
      "type": "function"
    }
  ],
  "bytecode": "0x60a060405234801562000010575f80fd5b506040516200127b3803806200127b83398101604081905262000033916200024b565b6040805180820182526009815268416c69546f6b656e7360b81b60208083019190915282518084019093526002835261414d60f01b9083015290836001600160a01b038116620000965760405163e6c4247b60e01b815260040160405180910390fd5b6001600160a01b03166080526003620000b0838262000324565b506004620000bf828262000324565b505050620000d43082620000dc60201b60201c565b505062000412565b6001600160a01b0382166200010b5760405163ec442f0560e01b81525f60048201526024015b60405180910390fd5b620001185f83836200011c565b5050565b6001600160a01b0383166200014a578060025f8282546200013e9190620003ec565b90915550620001bc9050565b6001600160a01b0383165f90815260208190526040902054818110156200019e5760405163391434e360e21b81526001600160a01b0385166004820152602481018290526044810183905260640162000102565b6001600160a01b0384165f9081526020819052604090209082900390555b6001600160a01b038216620001da57600280548290039055620001f8565b6001600160a01b0382165f9081526020819052604090208054820190555b816001600160a01b0316836001600160a01b03167fddf252ad1be2c89b69c2b068fc378daa952ba7f163c4a11628f55a4df523b3ef836040516200023e91815260200190565b60405180910390a3505050565b5f80604083850312156200025d575f80fd5b82516001600160a01b038116811462000274575f80fd5b6020939093015192949293505050565b634e487b7160e01b5f52604160045260245ffd5b600181811c90821680620002ad57607f821691505b602082108103620002cc57634e487b7160e01b5f52602260045260245ffd5b50919050565b601f8211156200031f575f81815260208120601f850160051c81016020861015620002fa5750805b601f850160051c820191505b818110156200031b5782815560010162000306565b5050505b505050565b81516001600160401b0381111562000340576200034062000284565b620003588162000351845462000298565b84620002d2565b602080601f8311600181146200038e575f8415620003765750858301515b5f19600386901b1c1916600185901b1785556200031b565b5f85815260208120601f198616915b82811015620003be578886015182559484019460019091019084016200039d565b5085821015620003dc57878501515f19600388901b60f8161c191681555b5050505050600190811b01905550565b808201808211156200040c57634e487b7160e01b5f52601160045260245ffd5b92915050565b608051610e42620004395f395f818161015c0152818161040f015261051e0152610e425ff3fe6080604052600436106100e7575f3560e01c806342966c681161008757806379cc67901161005757806379cc6790146102a057806395d89b41146102bf578063a9059cbb146102d3578063dd62ed3e146102f2575f80fd5b806342966c681461020f578063491606581461022e5780636d1b229d1461024d57806370a082311461026c575f80fd5b806318160ddd116100c257806318160ddd146101965780631a98b2e0146101b457806323b872dd146101d5578063313ce567146101f4575f80fd5b806306fdde03146100f2578063095ea7b31461011c578063116191b61461014b575f80fd5b366100ee57005b5f80fd5b3480156100fd575f80fd5b50610106610336565b60405161011391906109e1565b60405180910390f35b348015610127575f80fd5b5061013b610136366004610a47565b6103c6565b6040519015158152602001610113565b348015610156575f80fd5b5061017e7f000000000000000000000000000000000000000000000000000000000000000081565b6040516001600160a01b039091168152602001610113565b3480156101a1575f80fd5b506002545b604051908152602001610113565b3480156101bf575f80fd5b506101d36101ce366004610ab4565b6103df565b005b3480156101e0575f80fd5b5061013b6101ef366004610b84565b6104be565b3480156101ff575f80fd5b5060405160128152602001610113565b34801561021a575f80fd5b506101d3610229366004610bbd565b6104e1565b348015610239575f80fd5b506101d3610248366004610bd4565b6104ee565b348015610258575f80fd5b506101d3610267366004610bbd565b6105d2565b348015610277575f80fd5b506101a6610286366004610c70565b6001600160a01b03165f9081526020819052604090205490565b3480156102ab575f80fd5b506101d36102ba366004610a47565b610675565b3480156102ca575f80fd5b5061010661068e565b3480156102de575f80fd5b5061013b6102ed366004610a47565b61069d565b3480156102fd575f80fd5b506101a661030c366004610c90565b6001600160a01b039182165f90815260016020908152604080832093909416825291909152205490565b60606003805461034590610cc1565b80601f016020809104026020016040519081016040528092919081815260200182805461037190610cc1565b80156103bc5780601f10610393576101008083540402835291602001916103bc565b820191905f5260205f20905b81548152906001019060200180831161039f57829003601f168201915b5050505050905090565b5f336103d38185856106aa565b60019150505b92915050565b5f85856040516103f0929190610cf9565b604051908190038120631876eed960e01b825291506001600160a01b037f00000000000000000000000000000000000000000000000000000000000000001690631876eed990610454908e908e908e908e908e9089908d908d908d90600401610d30565b6020604051808303815f875af1158015610470573d5f803e3d5ffd5b505050506040513d601f19601f820116820180604052508101906104949190610d8e565b6104b157604051631403112d60e21b815260040160405180910390fd5b5050505050505050505050565b5f336104cb8582856106bc565b6104d6858585610737565b506001949350505050565b6104eb3382610794565b50565b5f82826040516104ff929190610cf9565b604051908190038120635f6970c360e01b825291506001600160a01b037f00000000000000000000000000000000000000000000000000000000000000001690635f6970c39061055d908b908b908b908b908b908990600401610dad565b6020604051808303815f875af1158015610579573d5f803e3d5ffd5b505050506040513d601f19601f8201168201806040525081019061059d9190610d8e565b6105ba57604051631403112d60e21b815260040160405180910390fd5b6105c88787878787876107c8565b5050505050505050565b305f908152602081905260409020548111156106355760405162461bcd60e51b815260206004820152601c60248201527f496e73756666696369656e742062616c616e636520746f206275726e0000000060448201526064015b60405180910390fd5b61063f3082610794565b6040518181527f6ef4855b666dcc7884561072e4358b28dfe01feb1b7f4dcebc00e62d50394ac79060200160405180910390a150565b6106808233836106bc565b61068a8282610794565b5050565b60606004805461034590610cc1565b5f336103d3818585610737565b6106b783838360016107e9565b505050565b6001600160a01b038381165f908152600160209081526040808320938616835292905220545f198114610731578181101561072357604051637dc7a0d960e11b81526001600160a01b0384166004820152602481018290526044810183905260640161062c565b61073184848484035f6107e9565b50505050565b6001600160a01b03831661076057604051634b637e8f60e11b81525f600482015260240161062c565b6001600160a01b0382166107895760405163ec442f0560e01b81525f600482015260240161062c565b6106b78383836108bb565b6001600160a01b0382166107bd57604051634b637e8f60e11b81525f600482015260240161062c565b61068a825f836108bb565b5f6107d582840184610bbd565b90506107e0816105d2565b50505050505050565b6001600160a01b0384166108125760405163e602df0560e01b81525f600482015260240161062c565b6001600160a01b03831661083b57604051634a1406b160e11b81525f600482015260240161062c565b6001600160a01b038085165f908152600160209081526040808320938716835292905220829055801561073157826001600160a01b0316846001600160a01b03167f8c5be1e5ebec7d5bd14f71427d1e84f3dd0314c0f7b2291e5b200ac8c7c3b925846040516108ad91815260200190565b60405180910390a350505050565b6001600160a01b0383166108e5578060025f8282546108da9190610ded565b909155506109559050565b6001600160a01b0383165f90815260208190526040902054818110156109375760405163391434e360e21b81526001600160a01b0385166004820152602481018290526044810183905260640161062c565b6001600160a01b0384165f9081526020819052604090209082900390555b6001600160a01b0382166109715760028054829003905561098f565b6001600160a01b0382165f9081526020819052604090208054820190555b816001600160a01b0316836001600160a01b03167fddf252ad1be2c89b69c2b068fc378daa952ba7f163c4a11628f55a4df523b3ef836040516109d491815260200190565b60405180910390a3505050565b5f6020808352835180828501525f5b81811015610a0c578581018301518582016040015282016109f0565b505f604082860101526040601f19601f8301168501019250505092915050565b80356001600160a01b0381168114610a42575f80fd5b919050565b5f8060408385031215610a58575f80fd5b610a6183610a2c565b946020939093013593505050565b5f8083601f840112610a7f575f80fd5b50813567ffffffffffffffff811115610a96575f80fd5b602083019150836020828501011115610aad575f80fd5b9250929050565b5f805f805f805f805f8060c08b8d031215610acd575f80fd5b8a35995060208b013567ffffffffffffffff80821115610aeb575f80fd5b610af78e838f01610a6f565b909b50995060408d0135915080821115610b0f575f80fd5b610b1b8e838f01610a6f565b909950975060608d0135915080821115610b33575f80fd5b610b3f8e838f01610a6f565b909750955060808d0135915080821115610b57575f80fd5b50610b648d828e01610a6f565b9150809450508092505060a08b013590509295989b9194979a5092959850565b5f805f60608486031215610b96575f80fd5b610b9f84610a2c565b9250610bad60208501610a2c565b9150604084013590509250925092565b5f60208284031215610bcd575f80fd5b5035919050565b5f805f805f805f6080888a031215610bea575f80fd5b87359650602088013567ffffffffffffffff80821115610c08575f80fd5b610c148b838c01610a6f565b909850965060408a0135915080821115610c2c575f80fd5b610c388b838c01610a6f565b909650945060608a0135915080821115610c50575f80fd5b50610c5d8a828b01610a6f565b989b979a50959850939692959293505050565b5f60208284031215610c80575f80fd5b610c8982610a2c565b9392505050565b5f8060408385031215610ca1575f80fd5b610caa83610a2c565b9150610cb860208401610a2c565b90509250929050565b600181811c90821680610cd557607f821691505b602082108103610cf357634e487b7160e01b5f52602260045260245ffd5b50919050565b818382375f9101908152919050565b81835281816020850137505f828201602090810191909152601f909101601f19169091010190565b89815260c060208201525f610d4960c083018a8c610d08565b8281036040840152610d5c81898b610d08565b90508660608401528281036080840152610d77818688610d08565b9150508260a08301529a9950505050505050505050565b5f60208284031215610d9e575f80fd5b81518015158114610c89575f80fd5b868152608060208201525f610dc6608083018789610d08565b8281036040840152610dd9818688610d08565b915050826060830152979650505050505050565b808201808211156103d957634e487b7160e01b5f52601160045260245ffdfea2646970667358221220a33fd3890369389bfe7933849f734de237fede36bc1c764f99536a5953626dc664736f6c63430008140033",
  "immutableReferences": {
    "10": [
      {
        "length": 32,
        "start": 348
      },
      {
        "length": 32,
        "start": 1039
      },
      {
        "length": 32,
        "start": 1310
      }
    ]
  },
  "source": "// SPDX-License-Identifier: MIT\npragma solidity ^0.8.20;\n\nimport \"@axelar-network/axelar-gmp-sdk-solidity/contracts/executable/AxelarExecutable.sol\";\nimport \"@axelar-network/axelar-gmp-sdk-solidity/contracts/interfaces/IAxelarGateway.sol\";\nimport \"@openzeppelin/contracts/token/ERC20/ERC20.sol\";\nimport \"@openzeppelin/contracts/token/ERC20/extensions/ERC20Burnable.sol\";\n\n/**\n * @title BurnableToken\n * @dev An ERC20 token that can be burned via cross-chain messages using the Axelar network.\n */\n\ncontract BurnableToken is AxelarExecutable, ERC20Burnable {\n    // Event emitted when tokens are burned\n    event TokensBurned(uint256 amount);\n\n    /**\n     * @dev Constructor that mints an initial supply of tokens to the contract itself.\n     * @param gateway_ The address of the Axelar gateway contract.\n     * @param initialSupply The initial supply of tokens to mint.\n     */\n\n    constructor(address gateway_, uint256 initialSupply) \n        AxelarExecutable(gateway_) \n        ERC20(\"AliTokens\", \"AM\") \n    {\n        // Mint the initial supply to the contract's address\n        _mint(address(this), initialSupply);\n    }\n\n    /**\n     * @dev Handles cross-chain messages received via Axelar.\n     * @param sourceChain The name of the source chain.\n     * @param sourceAddress The address of the source contract on the source chain.\n     * @param payload The payload sent from the source chain, expected to be the amount to burn.\n     */\n\n    function _execute(\n        string calldata sourceChain,\n        string calldata sourceAddress,\n        bytes calldata payload\n    ) internal override {\n        // Decode the payload to get the amount to burn\n        uint256 amountToBurn = abi.decode(payload, (uint256));\n        // Burn the specified amount of tokens\n        burnTokens(amountToBurn);\n    }\n\n    /**\n     * @dev Burns a specified amount of tokens from the contract's balance.\n     * @param amount The amount of tokens to burn.\n     */\n    function burnTokens(uint256 amount) public {\n        require(balanceOf(address(this)) >= amount, \"Insufficient balance to burn\");\n        _burn(address(this), amount);\n        emit TokensBurned(amount);\n    }\n\n    // Allows the contract to receive native currency (e.g., ETH)\n    receive() external payable {}\n}\n",
  "sourcePath": "/Users/aliasgarmerchant/Desktop/warden-node/tutorial/gmp-all/gmp-4/warden-gmp/evm/contracts/BurnableToken.sol",
  "compiler": {
    "name": "solc",
    "version": "0.8.20+commit.a1b79de6.Emscripten.clang"
  },
  "schemaVersion": "3.4.16",
  "updatedAt": "2024-09-14T06:11:15.632Z",
  "networkType": "ethereum",
  "devdoc": {
    "details": "An ERC20 token that can be burned via cross-chain messages using the Axelar network.",
    "errors": {
      "ERC20InsufficientAllowance(address,uint256,uint256)": [
        {
          "details": "Indicates a failure with the `spender`s `allowance`. Used in transfers.",
          "params": {
            "allowance": "Amount of tokens a `spender` is allowed to operate with.",
            "needed": "Minimum amount required to perform a transfer.",
            "spender": "Address that may be allowed to operate on tokens without being their owner."
          }
        }
      ],
      "ERC20InsufficientBalance(address,uint256,uint256)": [
        {
          "details": "Indicates an error related to the current `balance` of a `sender`. Used in transfers.",
          "params": {
            "balance": "Current balance for the interacting account.",
            "needed": "Minimum amount required to perform a transfer.",
            "sender": "Address whose tokens are being transferred."
          }
        }
      ],
      "ERC20InvalidApprover(address)": [
        {
          "details": "Indicates a failure with the `approver` of a token to be approved. Used in approvals.",
          "params": {
            "approver": "Address initiating an approval operation."
          }
        }
      ],
      "ERC20InvalidReceiver(address)": [
        {
          "details": "Indicates a failure with the token `receiver`. Used in transfers.",
          "params": {
            "receiver": "Address to which tokens are being transferred."
          }
        }
      ],
      "ERC20InvalidSender(address)": [
        {
          "details": "Indicates a failure with the token `sender`. Used in transfers.",
          "params": {
            "sender": "Address whose tokens are being transferred."
          }
        }
      ],
      "ERC20InvalidSpender(address)": [
        {
          "details": "Indicates a failure with the `spender` to be approved. Used in approvals.",
          "params": {
            "spender": "Address that may be allowed to operate on tokens without being their owner."
          }
        }
      ]
    },
    "events": {
      "Approval(address,address,uint256)": {
        "details": "Emitted when the allowance of a `spender` for an `owner` is set by a call to {approve}. `value` is the new allowance."
      },
      "Transfer(address,address,uint256)": {
        "details": "Emitted when `value` tokens are moved from one account (`from`) to another (`to`). Note that `value` may be zero."
      }
    },
    "kind": "dev",
    "methods": {
      "allowance(address,address)": {
        "details": "See {IERC20-allowance}."
      },
      "approve(address,uint256)": {
        "details": "See {IERC20-approve}. NOTE: If `value` is the maximum `uint256`, the allowance is not updated on `transferFrom`. This is semantically equivalent to an infinite approval. Requirements: - `spender` cannot be the zero address."
      },
      "balanceOf(address)": {
        "details": "See {IERC20-balanceOf}."
      },
      "burn(uint256)": {
        "details": "Destroys a `value` amount of tokens from the caller. See {ERC20-_burn}."
      },
      "burnFrom(address,uint256)": {
        "details": "Destroys a `value` amount of tokens from `account`, deducting from the caller's allowance. See {ERC20-_burn} and {ERC20-allowance}. Requirements: - the caller must have allowance for ``accounts``'s tokens of at least `value`."
      },
      "burnTokens(uint256)": {
        "details": "Burns a specified amount of tokens from the contract's balance.",
        "params": {
          "amount": "The amount of tokens to burn."
        }
      },
      "constructor": {
        "details": "Constructor that mints an initial supply of tokens to the contract itself.",
        "params": {
          "gateway_": "The address of the Axelar gateway contract.",
          "initialSupply": "The initial supply of tokens to mint."
        }
      },
      "decimals()": {
        "details": "Returns the number of decimals used to get its user representation. For example, if `decimals` equals `2`, a balance of `505` tokens should be displayed to a user as `5.05` (`505 / 10 ** 2`). Tokens usually opt for a value of 18, imitating the relationship between Ether and Wei. This is the default value returned by this function, unless it's overridden. NOTE: This information is only used for _display_ purposes: it in no way affects any of the arithmetic of the contract, including {IERC20-balanceOf} and {IERC20-transfer}."
      },
      "name()": {
        "details": "Returns the name of the token."
      },
      "symbol()": {
        "details": "Returns the symbol of the token, usually a shorter version of the name."
      },
      "totalSupply()": {
        "details": "See {IERC20-totalSupply}."
      },
      "transfer(address,uint256)": {
        "details": "See {IERC20-transfer}. Requirements: - `to` cannot be the zero address. - the caller must have a balance of at least `value`."
      },
      "transferFrom(address,address,uint256)": {
        "details": "See {IERC20-transferFrom}. Emits an {Approval} event indicating the updated allowance. This is not required by the EIP. See the note at the beginning of {ERC20}. NOTE: Does not update the allowance if the current allowance is the maximum `uint256`. Requirements: - `from` and `to` cannot be the zero address. - `from` must have a balance of at least `value`. - the caller must have allowance for ``from``'s tokens of at least `value`."
      }
    },
    "title": "BurnableToken",
    "version": 1
  },
  "userdoc": {
    "kind": "user",
    "methods": {},
    "version": 1
  }
}